{"contracts/CoreLoanPlatform.sol":{"CoreLoanPlatform":{"abi":[{"inputs":[],"name":"BORROWABLE_RATIO","outputs":[{"internalType":"uint256","name":"","type":"uint256"}],"stateMutability":"view","type":"function"},{"inputs":[],"name":"BTC","outputs":[{"internalType":"contract IERC20","name":"","type":"address"}],"stateMutability":"view","type":"function"},{"inputs":[],"name":"COLLATERAL_RATIO","outputs":[{"internalType":"uint256","name":"","type":"uint256"}],"stateMutability":"view","type":"function"},{"inputs":[],"name":"INTEREST_RATE","outputs":[{"internalType":"uint256","name":"","type":"uint256"}],"stateMutability":"view","type":"function"},{"inputs":[],"name":"LOAN_DURATION","outputs":[{"internalType":"uint256","name":"","type":"uint256"}],"stateMutability":"view","type":"function"},{"inputs":[],"name":"USD","outputs":[{"internalType":"contract IERC20","name":"","type":"address"}],"stateMutability":"view","type":"function"},{"inputs":[{"internalType":"uint256","name":"amount","type":"uint256"}],"name":"borrowBTC","outputs":[],"stateMutability":"nonpayable","type":"function"},{"inputs":[{"internalType":"address","name":"user","type":"address"}],"name":"calculateInterest","outputs":[{"internalType":"uint256","name":"","type":"uint256"}],"stateMutability":"view","type":"function"},{"inputs":[{"internalType":"uint256","name":"amount","type":"uint256"}],"name":"depositBTC","outputs":[],"stateMutability":"nonpayable","type":"function"},{"inputs":[{"internalType":"uint256","name":"amount","type":"uint256"}],"name":"depositCollateral","outputs":[],"stateMutability":"nonpayable","type":"function"},{"inputs":[{"internalType":"address","name":"user","type":"address"}],"name":"getBorrowableAmount","outputs":[{"internalType":"uint256","name":"","type":"uint256"}],"stateMutability":"view","type":"function"},{"inputs":[],"name":"getCurrentApy","outputs":[{"internalType":"uint256","name":"","type":"uint256"}],"stateMutability":"pure","type":"function"},{"inputs":[{"internalType":"address","name":"lender","type":"address"}],"name":"getLenderBalance","outputs":[{"internalType":"uint256","name":"","type":"uint256"}],"stateMutability":"view","type":"function"},{"inputs":[{"internalType":"address","name":"borrower","type":"address"}],"name":"getLoanDetails","outputs":[{"components":[{"internalType":"uint256","name":"amount","type":"uint256"},{"internalType":"uint256","name":"collateral","type":"uint256"},{"internalType":"uint256","name":"timestamp","type":"uint256"},{"internalType":"bool","name":"active","type":"bool"}],"internalType":"struct CoreLoanPlatform.Loan","name":"","type":"tuple"}],"stateMutability":"view","type":"function"},{"inputs":[],"name":"getTotalBorrowed","outputs":[{"internalType":"uint256","name":"","type":"uint256"}],"stateMutability":"view","type":"function"},{"inputs":[],"name":"getTotalStaked","outputs":[{"internalType":"uint256","name":"","type":"uint256"}],"stateMutability":"view","type":"function"},{"inputs":[{"internalType":"address","name":"user","type":"address"}],"name":"getUserBorrowed","outputs":[{"internalType":"uint256","name":"","type":"uint256"}],"stateMutability":"view","type":"function"},{"inputs":[{"internalType":"address","name":"user","type":"address"}],"name":"getUserCollateral","outputs":[{"internalType":"uint256","name":"","type":"uint256"}],"stateMutability":"view","type":"function"},{"inputs":[{"internalType":"address","name":"user","type":"address"}],"name":"getUserStaked","outputs":[{"internalType":"uint256","name":"","type":"uint256"}],"stateMutability":"view","type":"function"},{"inputs":[{"internalType":"address","name":"","type":"address"}],"name":"lenderBalances","outputs":[{"internalType":"uint256","name":"","type":"uint256"}],"stateMutability":"view","type":"function"},{"inputs":[{"internalType":"address","name":"","type":"address"}],"name":"loans","outputs":[{"internalType":"uint256","name":"amount","type":"uint256"},{"internalType":"uint256","name":"collateral","type":"uint256"},{"internalType":"uint256","name":"timestamp","type":"uint256"},{"internalType":"bool","name":"active","type":"bool"}],"stateMutability":"view","type":"function"},{"inputs":[{"internalType":"address","name":"user","type":"address"}],"name":"repayLoan","outputs":[],"stateMutability":"nonpayable","type":"function"},{"inputs":[{"internalType":"address","name":"","type":"address"}],"name":"userCollateral","outputs":[{"internalType":"uint256","name":"","type":"uint256"}],"stateMutability":"view","type":"function"},{"inputs":[{"internalType":"uint256","name":"amount","type":"uint256"}],"name":"withdrawBTC","outputs":[],"stateMutability":"nonpayable","type":"function"},{"inputs":[{"internalType":"uint256","name":"amount","type":"uint256"}],"name":"withdrawCollateral","outputs":[],"stateMutability":"nonpayable","type":"function"}],"evm":{"bytecode":{"linkReferences":{},"object":"60c060405260008055600060015534801561001957600080fd5b5060805160a05161042a61003f6000396000610222015260006101d6015261042a6000f3fe608060405234801561001057600080fd5b50600436106101a35760003560e01c8063a6b6d798116100ee578063dac3fc3f11610097578063e86ef40b11610071578063e86ef40b1461025a578063e8a7da8e14610304578063f4925de5146101a8578063f69f1e4a1461034c57600080fd5b8063dac3fc3f1461025a578063e02a4dfd146102fa578063e11932cf1461025a57600080fd5b8063bd09085a116100c8578063bd09085a1461025a578063d1a405641461024c578063d9e69a05146102f257600080fd5b8063a6b6d7981461024c578063b6f7132f1461025a578063bad4a01f1461024c57600080fd5b80636112fe2e1161015057806373b4086b1161012a57806373b4086b1461027657806390b4588b1461024c578063a27a944d146102d257600080fd5b80636112fe2e1461024c578063691d1eb31461025a5780636e35f1241461026e57600080fd5b80631bf6c21b116101815780631bf6c21b146101d15780632792949d1461021d5780635b72a33a1461024457600080fd5b80630307c4a1146101a85780630917e776146101a8578063190ef1e6146101be575b600080fd5b60005b6040519081526020015b60405180910390f35b6101cf6101cc36600461039e565b50565b005b6101f87f000000000000000000000000000000000000000000000000000000000000000081565b60405173ffffffffffffffffffffffffffffffffffffffff90911681526020016101b5565b6101f87f000000000000000000000000000000000000000000000000000000000000000081565b6101ab600581565b6101cf6101cc3660046103db565b6101ab61026836600461039e565b50600090565b6101ab605081565b6102b061028436600461039e565b600260208190526000918252604090912080546001820154928201546003909201549092919060ff1684565b60408051948552602085019390935291830152151560608201526080016101b5565b6101ab6102e036600461039e565b60036020526000908152604090205481565b6101ab609681565b6101ab62278d0081565b61031761031236600461039e565b61036c565b6040516101b5919081518152602080830151908201526040808301519082015260609182015115159181019190915260800190565b6101ab61035a36600461039e565b60046020526000908152604090205481565b61039960405180608001604052806000815260200160008152602001600081526020016000151581525090565b919050565b6000602082840312156103b057600080fd5b813573ffffffffffffffffffffffffffffffffffffffff811681146103d457600080fd5b9392505050565b6000602082840312156103ed57600080fd5b503591905056fea2646970667358221220fe53709f809e957c324f985052035b8f21c0ed74b5c160591d8c8cb10acc6c2164736f6c63430008180033","opcodes":"PUSH1 0xC0 PUSH1 0x40 MSTORE PUSH1 0x0 DUP1 SSTORE PUSH1 0x0 PUSH1 0x1 SSTORE CALLVALUE DUP1 ISZERO PUSH2 0x19 JUMPI PUSH1 0x0 DUP1 REVERT JUMPDEST POP PUSH1 0x80 MLOAD PUSH1 0xA0 MLOAD PUSH2 0x42A PUSH2 0x3F PUSH1 0x0 CODECOPY PUSH1 0x0 PUSH2 0x222 ADD MSTORE PUSH1 0x0 PUSH2 0x1D6 ADD MSTORE PUSH2 0x42A PUSH1 0x0 RETURN INVALID PUSH1 0x80 PUSH1 0x40 MSTORE CALLVALUE DUP1 ISZERO PUSH2 0x10 JUMPI PUSH1 0x0 DUP1 REVERT JUMPDEST POP PUSH1 0x4 CALLDATASIZE LT PUSH2 0x1A3 JUMPI PUSH1 0x0 CALLDATALOAD PUSH1 0xE0 SHR DUP1 PUSH4 0xA6B6D798 GT PUSH2 0xEE JUMPI DUP1 PUSH4 0xDAC3FC3F GT PUSH2 0x97 JUMPI DUP1 PUSH4 0xE86EF40B GT PUSH2 0x71 JUMPI DUP1 PUSH4 0xE86EF40B EQ PUSH2 0x25A JUMPI DUP1 PUSH4 0xE8A7DA8E EQ PUSH2 0x304 JUMPI DUP1 PUSH4 0xF4925DE5 EQ PUSH2 0x1A8 JUMPI DUP1 PUSH4 0xF69F1E4A EQ PUSH2 0x34C JUMPI PUSH1 0x0 DUP1 REVERT JUMPDEST DUP1 PUSH4 0xDAC3FC3F EQ PUSH2 0x25A JUMPI DUP1 PUSH4 0xE02A4DFD EQ PUSH2 0x2FA JUMPI DUP1 PUSH4 0xE11932CF EQ PUSH2 0x25A JUMPI PUSH1 0x0 DUP1 REVERT JUMPDEST DUP1 PUSH4 0xBD09085A GT PUSH2 0xC8 JUMPI DUP1 PUSH4 0xBD09085A EQ PUSH2 0x25A JUMPI DUP1 PUSH4 0xD1A40564 EQ PUSH2 0x24C JUMPI DUP1 PUSH4 0xD9E69A05 EQ PUSH2 0x2F2 JUMPI PUSH1 0x0 DUP1 REVERT JUMPDEST DUP1 PUSH4 0xA6B6D798 EQ PUSH2 0x24C JUMPI DUP1 PUSH4 0xB6F7132F EQ PUSH2 0x25A JUMPI DUP1 PUSH4 0xBAD4A01F EQ PUSH2 0x24C JUMPI PUSH1 0x0 DUP1 REVERT JUMPDEST DUP1 PUSH4 0x6112FE2E GT PUSH2 0x150 JUMPI DUP1 PUSH4 0x73B4086B GT PUSH2 0x12A JUMPI DUP1 PUSH4 0x73B4086B EQ PUSH2 0x276 JUMPI DUP1 PUSH4 0x90B4588B EQ PUSH2 0x24C JUMPI DUP1 PUSH4 0xA27A944D EQ PUSH2 0x2D2 JUMPI PUSH1 0x0 DUP1 REVERT JUMPDEST DUP1 PUSH4 0x6112FE2E EQ PUSH2 0x24C JUMPI DUP1 PUSH4 0x691D1EB3 EQ PUSH2 0x25A JUMPI DUP1 PUSH4 0x6E35F124 EQ PUSH2 0x26E JUMPI PUSH1 0x0 DUP1 REVERT JUMPDEST DUP1 PUSH4 0x1BF6C21B GT PUSH2 0x181 JUMPI DUP1 PUSH4 0x1BF6C21B EQ PUSH2 0x1D1 JUMPI DUP1 PUSH4 0x2792949D EQ PUSH2 0x21D JUMPI DUP1 PUSH4 0x5B72A33A EQ PUSH2 0x244 JUMPI PUSH1 0x0 DUP1 REVERT JUMPDEST DUP1 PUSH4 0x307C4A1 EQ PUSH2 0x1A8 JUMPI DUP1 PUSH4 0x917E776 EQ PUSH2 0x1A8 JUMPI DUP1 PUSH4 0x190EF1E6 EQ PUSH2 0x1BE JUMPI JUMPDEST PUSH1 0x0 DUP1 REVERT JUMPDEST PUSH1 0x0 JUMPDEST PUSH1 0x40 MLOAD SWAP1 DUP2 MSTORE PUSH1 0x20 ADD JUMPDEST PUSH1 0x40 MLOAD DUP1 SWAP2 SUB SWAP1 RETURN JUMPDEST PUSH2 0x1CF PUSH2 0x1CC CALLDATASIZE PUSH1 0x4 PUSH2 0x39E JUMP JUMPDEST POP JUMP JUMPDEST STOP JUMPDEST PUSH2 0x1F8 PUSH32 0x0 DUP2 JUMP JUMPDEST PUSH1 0x40 MLOAD PUSH20 0xFFFFFFFFFFFFFFFFFFFFFFFFFFFFFFFFFFFFFFFF SWAP1 SWAP2 AND DUP2 MSTORE PUSH1 0x20 ADD PUSH2 0x1B5 JUMP JUMPDEST PUSH2 0x1F8 PUSH32 0x0 DUP2 JUMP JUMPDEST PUSH2 0x1AB PUSH1 0x5 DUP2 JUMP JUMPDEST PUSH2 0x1CF PUSH2 0x1CC CALLDATASIZE PUSH1 0x4 PUSH2 0x3DB JUMP JUMPDEST PUSH2 0x1AB PUSH2 0x268 CALLDATASIZE PUSH1 0x4 PUSH2 0x39E JUMP JUMPDEST POP PUSH1 0x0 SWAP1 JUMP JUMPDEST PUSH2 0x1AB PUSH1 0x50 DUP2 JUMP JUMPDEST PUSH2 0x2B0 PUSH2 0x284 CALLDATASIZE PUSH1 0x4 PUSH2 0x39E JUMP JUMPDEST PUSH1 0x2 PUSH1 0x20 DUP2 SWAP1 MSTORE PUSH1 0x0 SWAP2 DUP3 MSTORE PUSH1 0x40 SWAP1 SWAP2 KECCAK256 DUP1 SLOAD PUSH1 0x1 DUP3 ADD SLOAD SWAP3 DUP3 ADD SLOAD PUSH1 0x3 SWAP1 SWAP3 ADD SLOAD SWAP1 SWAP3 SWAP2 SWAP1 PUSH1 0xFF AND DUP5 JUMP JUMPDEST PUSH1 0x40 DUP1 MLOAD SWAP5 DUP6 MSTORE PUSH1 0x20 DUP6 ADD SWAP4 SWAP1 SWAP4 MSTORE SWAP2 DUP4 ADD MSTORE ISZERO ISZERO PUSH1 0x60 DUP3 ADD MSTORE PUSH1 0x80 ADD PUSH2 0x1B5 JUMP JUMPDEST PUSH2 0x1AB PUSH2 0x2E0 CALLDATASIZE PUSH1 0x4 PUSH2 0x39E JUMP JUMPDEST PUSH1 0x3 PUSH1 0x20 MSTORE PUSH1 0x0 SWAP1 DUP2 MSTORE PUSH1 0x40 SWAP1 KECCAK256 SLOAD DUP2 JUMP JUMPDEST PUSH2 0x1AB PUSH1 0x96 DUP2 JUMP JUMPDEST PUSH2 0x1AB PUSH3 0x278D00 DUP2 JUMP JUMPDEST PUSH2 0x317 PUSH2 0x312 CALLDATASIZE PUSH1 0x4 PUSH2 0x39E JUMP JUMPDEST PUSH2 0x36C JUMP JUMPDEST PUSH1 0x40 MLOAD PUSH2 0x1B5 SWAP2 SWAP1 DUP2 MLOAD DUP2 MSTORE PUSH1 0x20 DUP1 DUP4 ADD MLOAD SWAP1 DUP3 ADD MSTORE PUSH1 0x40 DUP1 DUP4 ADD MLOAD SWAP1 DUP3 ADD MSTORE PUSH1 0x60 SWAP2 DUP3 ADD MLOAD ISZERO ISZERO SWAP2 DUP2 ADD SWAP2 SWAP1 SWAP2 MSTORE PUSH1 0x80 ADD SWAP1 JUMP JUMPDEST PUSH2 0x1AB PUSH2 0x35A CALLDATASIZE PUSH1 0x4 PUSH2 0x39E JUMP JUMPDEST PUSH1 0x4 PUSH1 0x20 MSTORE PUSH1 0x0 SWAP1 DUP2 MSTORE PUSH1 0x40 SWAP1 KECCAK256 SLOAD DUP2 JUMP JUMPDEST PUSH2 0x399 PUSH1 0x40 MLOAD DUP1 PUSH1 0x80 ADD PUSH1 0x40 MSTORE DUP1 PUSH1 0x0 DUP2 MSTORE PUSH1 0x20 ADD PUSH1 0x0 DUP2 MSTORE PUSH1 0x20 ADD PUSH1 0x0 DUP2 MSTORE PUSH1 0x20 ADD PUSH1 0x0 ISZERO ISZERO DUP2 MSTORE POP SWAP1 JUMP JUMPDEST SWAP2 SWAP1 POP JUMP JUMPDEST PUSH1 0x0 PUSH1 0x20 DUP3 DUP5 SUB SLT ISZERO PUSH2 0x3B0 JUMPI PUSH1 0x0 DUP1 REVERT JUMPDEST DUP2 CALLDATALOAD PUSH20 0xFFFFFFFFFFFFFFFFFFFFFFFFFFFFFFFFFFFFFFFF DUP2 AND DUP2 EQ PUSH2 0x3D4 JUMPI PUSH1 0x0 DUP1 REVERT JUMPDEST SWAP4 SWAP3 POP POP POP JUMP JUMPDEST PUSH1 0x0 PUSH1 0x20 DUP3 DUP5 SUB SLT ISZERO PUSH2 0x3ED JUMPI PUSH1 0x0 DUP1 REVERT JUMPDEST POP CALLDATALOAD SWAP2 SWAP1 POP JUMP INVALID LOG2 PUSH5 0x6970667358 0x22 SLT KECCAK256 INVALID MSTORE8 PUSH17 0x9F809E957C324F985052035B8F21C0ED74 0xB5 0xC1 PUSH1 0x59 SAR DUP13 DUP13 0xB1 EXP 0xCC PUSH13 0x2164736F6C6343000818003300 "},"methodIdentifiers":{"BORROWABLE_RATIO()":"6e35f124","BTC()":"2792949d","COLLATERAL_RATIO()":"d9e69a05","INTEREST_RATE()":"5b72a33a","LOAN_DURATION()":"e02a4dfd","USD()":"1bf6c21b","borrowBTC(uint256)":"d1a40564","calculateInterest(address)":"e11932cf","depositBTC(uint256)":"a6b6d798","depositCollateral(uint256)":"bad4a01f","getBorrowableAmount(address)":"691d1eb3","getCurrentApy()":"f4925de5","getLenderBalance(address)":"bd09085a","getLoanDetails(address)":"e8a7da8e","getTotalBorrowed()":"0307c4a1","getTotalStaked()":"0917e776","getUserBorrowed(address)":"e86ef40b","getUserCollateral(address)":"b6f7132f","getUserStaked(address)":"dac3fc3f","lenderBalances(address)":"a27a944d","loans(address)":"73b4086b","repayLoan(address)":"190ef1e6","userCollateral(address)":"f69f1e4a","withdrawBTC(uint256)":"90b4588b","withdrawCollateral(uint256)":"6112fe2e"}}}}}